{
  "contractName": "Fund",
  "abi": [
    {
      "constant": true,
      "inputs": [],
      "name": "organization",
      "outputs": [
        {
          "name": "",
          "type": "string"
        }
      ],
      "payable": false,
      "stateMutability": "view",
      "type": "function"
    },
    {
      "constant": true,
      "inputs": [],
      "name": "get_organization_name",
      "outputs": [
        {
          "name": "",
          "type": "string"
        }
      ],
      "payable": false,
      "stateMutability": "view",
      "type": "function"
    },
    {
      "constant": true,
      "inputs": [],
      "name": "beneficiary",
      "outputs": [
        {
          "name": "",
          "type": "address"
        }
      ],
      "payable": false,
      "stateMutability": "view",
      "type": "function"
    },
    {
      "constant": true,
      "inputs": [
        {
          "name": "_donor",
          "type": "address"
        }
      ],
      "name": "get_donors",
      "outputs": [
        {
          "name": "",
          "type": "address[]"
        }
      ],
      "payable": false,
      "stateMutability": "view",
      "type": "function"
    },
    {
      "constant": true,
      "inputs": [
        {
          "name": "_donor",
          "type": "address"
        }
      ],
      "name": "get_amount",
      "outputs": [
        {
          "name": "",
          "type": "uint256"
        }
      ],
      "payable": false,
      "stateMutability": "view",
      "type": "function"
    },
    {
      "constant": false,
      "inputs": [
        {
          "name": "_name",
          "type": "string"
        }
      ],
      "name": "set_org_name",
      "outputs": [
        {
          "name": "name",
          "type": "string"
        },
        {
          "name": "amount",
          "type": "uint256"
        }
      ],
      "payable": false,
      "stateMutability": "nonpayable",
      "type": "function"
    },
    {
      "constant": false,
      "inputs": [
        {
          "name": "_name",
          "type": "string"
        }
      ],
      "name": "donate",
      "outputs": [
        {
          "name": "name",
          "type": "string"
        },
        {
          "name": "amount",
          "type": "uint256"
        }
      ],
      "payable": true,
      "stateMutability": "payable",
      "type": "function"
    },
    {
      "inputs": [
        {
          "name": "",
          "type": "address"
        }
      ],
      "payable": false,
      "stateMutability": "view",
      "type": "function",
      "constant": true,
      "name": "donors",
      "outputs": [
        {
          "name": "name",
          "type": "string"
        },
        {
          "name": "amount",
          "type": "uint256"
        }
      ]
    },
    {
      "inputs": [
        {
          "name": "_donor",
          "type": "address"
        }
      ],
      "payable": false,
      "stateMutability": "view",
      "type": "function",
      "constant": true,
      "name": "get_name",
      "outputs": [
        {
          "name": "",
          "type": "string"
        }
      ]
    },
    {
      "inputs": [
        {
          "name": "_name",
          "type": "string"
        }
      ],
      "payable": false,
      "stateMutability": "nonpayable",
      "type": "constructor"
    }
  ],
  "bytecode": "0x6060604052341561000f57600080fd5b604051610c38380380610c38833981016040528080518201919050508060009080519060200190610041929190610089565b5033600160006101000a81548173ffffffffffffffffffffffffffffffffffffffff021916908373ffffffffffffffffffffffffffffffffffffffff1602179055505061012e565b828054600181600116156101000203166002900490600052602060002090601f016020900481019282601f106100ca57805160ff19168380011785556100f8565b828001600101855582156100f8579182015b828111156100f75782518255916020019190600101906100dc565b5b5090506101059190610109565b5090565b61012b91905b8082111561012757600081600090555060010161010f565b5090565b90565b610afb8061013d6000396000f300606060405260043610610099576000357c0100000000000000000000000000000000000000000000000000000000900463ffffffff16806323bd4d7a1461009e578063357751871461012c57806338af3eed146101ba5780636d8713d71461020f5780637c01388c14610279578063b1f92379146102c6578063b5aebc8014610323578063ca0cdea814610375578063f3a0a3a91461044b575b600080fd5b34156100a957600080fd5b6100b16104fd565b6040518080602001828103825283818151815260200191508051906020019080838360005b838110156100f15780820151818401526020810190506100d6565b50505050905090810190601f16801561011e5780820380516001836020036101000a031916815260200191505b509250505060405180910390f35b341561013757600080fd5b61013f61059b565b6040518080602001828103825283818151815260200191508051906020019080838360005b8381101561017f578082015181840152602081019050610164565b50505050905090810190601f1680156101ac5780820380516001836020036101000a031916815260200191505b509250505060405180910390f35b34156101c557600080fd5b6101cd610643565b604051808273ffffffffffffffffffffffffffffffffffffffff1673ffffffffffffffffffffffffffffffffffffffff16815260200191505060405180910390f35b341561021a57600080fd5b610222610669565b6040518080602001828103825283818151815260200191508051906020019060200280838360005b8381101561026557808201518184015260208101905061024a565b505050509050019250505060405180910390f35b341561028457600080fd5b6102b0600480803573ffffffffffffffffffffffffffffffffffffffff169060200190919050506106fd565b6040518082815260200191505060405180910390f35b34156102d157600080fd5b610321600480803590602001908201803590602001908080601f01602080910402602001604051908101604052809392919081815260200183838082843782019150505050505091905050610749565b005b610373600480803590602001908201803590602001908080601f01602080910402602001604051908101604052809392919081815260200183838082843782019150505050505091905050610763565b005b341561038057600080fd5b6103ac600480803573ffffffffffffffffffffffffffffffffffffffff169060200190919050506108c9565b604051808060200183815260200182810382528481815460018160011615610100020316600290048152602001915080546001816001161561010002031660029004801561043b5780601f106104105761010080835404028352916020019161043b565b820191906000526020600020905b81548152906001019060200180831161041e57829003601f168201915b5050935050505060405180910390f35b341561045657600080fd5b610482600480803573ffffffffffffffffffffffffffffffffffffffff169060200190919050506108ec565b6040518080602001828103825283818151815260200191508051906020019080838360005b838110156104c25780820151818401526020810190506104a7565b50505050905090810190601f1680156104ef5780820380516001836020036101000a031916815260200191505b509250505060405180910390f35b60008054600181600116156101000203166002900480601f0160208091040260200160405190810160405280929190818152602001828054600181600116156101000203166002900480156105935780601f1061056857610100808354040283529160200191610593565b820191906000526020600020905b81548152906001019060200180831161057657829003601f168201915b505050505081565b6105a36109d6565b60008054600181600116156101000203166002900480601f0160208091040260200160405190810160405280929190818152602001828054600181600116156101000203166002900480156106395780601f1061060e57610100808354040283529160200191610639565b820191906000526020600020905b81548152906001019060200180831161061c57829003601f168201915b5050505050905090565b600160009054906101000a900473ffffffffffffffffffffffffffffffffffffffff1681565b6106716109ea565b60028054806020026020016040519081016040528092919081815260200182805480156106f357602002820191906000526020600020905b8160009054906101000a900473ffffffffffffffffffffffffffffffffffffffff1673ffffffffffffffffffffffffffffffffffffffff16815260200190600101908083116106a9575b5050505050905090565b6000600360008373ffffffffffffffffffffffffffffffffffffffff1673ffffffffffffffffffffffffffffffffffffffff168152602001908152602001600020600101549050919050565b806000908051906020019061075f9291906109fe565b5050565b80600360003373ffffffffffffffffffffffffffffffffffffffff1673ffffffffffffffffffffffffffffffffffffffff16815260200190815260200160002060000190805190602001906107b99291906109fe565b5034600360003373ffffffffffffffffffffffffffffffffffffffff1673ffffffffffffffffffffffffffffffffffffffff16815260200190815260200160002060010181905550600280548060010182816108159190610a7e565b9160005260206000209001600033909190916101000a81548173ffffffffffffffffffffffffffffffffffffffff021916908373ffffffffffffffffffffffffffffffffffffffff16021790555050600160009054906101000a900473ffffffffffffffffffffffffffffffffffffffff1673ffffffffffffffffffffffffffffffffffffffff166108fc349081150290604051600060405180830381858888f1935050505015156108c657600080fd5b50565b600360205280600052604060002060009150905080600001908060010154905082565b6108f46109d6565b600360008373ffffffffffffffffffffffffffffffffffffffff1673ffffffffffffffffffffffffffffffffffffffff1681526020019081526020016000206000018054600181600116156101000203166002900480601f0160208091040260200160405190810160405280929190818152602001828054600181600116156101000203166002900480156109ca5780601f1061099f576101008083540402835291602001916109ca565b820191906000526020600020905b8154815290600101906020018083116109ad57829003601f168201915b50505050509050919050565b602060405190810160405280600081525090565b602060405190810160405280600081525090565b828054600181600116156101000203166002900490600052602060002090601f016020900481019282601f10610a3f57805160ff1916838001178555610a6d565b82800160010185558215610a6d579182015b82811115610a6c578251825591602001919060010190610a51565b5b509050610a7a9190610aaa565b5090565b815481835581811511610aa557818360005260206000209182019101610aa49190610aaa565b5b505050565b610acc91905b80821115610ac8576000816000905550600101610ab0565b5090565b905600a165627a7a723058209a24f47c9131e6aa4f49c0404f176f029907d99f6205e09d59ccdeb938827a220029",
  "source": "pragma solidity ^0.4.18; \n\ncontract Fund {\n\n\tstruct Donor {\n\t\tstring name; \n\t\tuint amount; \n\t}\n\n\tstring public organization; \n\taddress public beneficiary; \n\taddress[] donor_addresses; \n\tmapping(address => Donor) public donors;\n\t\n\n\tfunction Fund(string _name) public {\n\t\torganization = _name; \n\t\tbeneficiary = msg.sender;  \n\t}\n\n\tfunction set_org_name(string _name) public {\n\t\torganization = _name; \n\t}\n\n\tfunction donate(string _name) public payable{\n\t\tdonors[msg.sender].name = _name;\n\t\tdonors[msg.sender].amount = msg.value;\n\t\tdonor_addresses.push(msg.sender);\n\t\tbeneficiary.transfer(msg.value); \n\t\t\n\t}\n\n\tfunction get_donors() public view returns(address[]) {\n\t   return donor_addresses; \n\t}\n\t\n\tfunction get_name(address _donor) public view returns(string) {\n\t    return donors[_donor].name; \n\t}\n\t\n\tfunction get_amount(address _donor) public view returns(uint) {\n\t    return donors[_donor].amount; \n\t}\n\n\tfunction get_organization_name() public view returns(string) {\n\t\treturn organization; \n\t}\n\n}",
  "sourcePath": "/Users/maxyuan/Documents/Projects/Education/B@Bedu/Project1/contracts/fund.sol",
  "compiler": {
    "name": "solc",
    "version": "0.4.18+commit.9cf6e910.Emscripten.clang"
  },
  "schemaVersion": "1.0.1",
  "updatedAt": "2018-03-03T06:39:10.183Z"
}